:100000000C9462000C948A000C948A000C948A0070
:100010000C948A000C948A000C948A000C948A0038
:100020000C948A000C948A000C948A000C9440056D
:100030000C948A000C948A000C948A000C948A0018
:100040000C949E040C948A000C940E050C94E80405
:100050000C948A000C948A000C948A000C948A00F8
:100060000C948A000C948A000000000023002600F3
:10007000290000000000240027002A0000000000E2
:10008000250028002B0004040404040404040202D4
:100090000202020203030303030301020408102007
:1000A0004080010204081020010204081020000012
:1000B0000008000201000003040700000000000027
:1000C0000000410611241FBECFEFD8E0DEBFCDBF38
:1000D00014E0A0E0B1E0EEE4F7E102C005900D927B
:1000E000A63CB107D9F725E0A6ECB4E001C01D920B
:1000F000A73AB207E1F710E0C2E6D0E004C02197CA
:10010000FE010E949F0BC136D107C9F70E949E06CF
:100110000C94A50B0C940000CF92DF92EF92FF920B
:10012000DC01A03282E0B807D4F5A53BB10514F09C
:10013000A4EBB0E04091A50528E830E0241B31098C
:1001400047FD3395220F331F220F331F6901330FF1
:10015000EE08FF084091A60528E532E0241B31098E
:1001600047FD3395220F331F220F331F032E000C40
:10017000440B550B2C193D094E095F09B7FF02C00E
:10018000B0E0A0E00E94290A24EB30E040E050E01B
:100190000E94FF09C20ED31EE41EF51ED601E09197
:1001A000A405EC3080F52091A50588E890E0821B3D
:1001B000910927FD9395880F991F880F991FA817FC
:1001C000B90784F02091A60588E592E0821B910989
:1001D00027FD9395880F991F880F991FA817B907B6
:1001E0000CF4CD010297880F991F4FB7F8942E2F6A
:1001F00030E0F901EE0FFF1FE20FF31FE158FA4F55
:10020000928381834FBFFF90EF90DF90CF9008954E
:1002100090E0FC01E255FF4F2491FC01E656FF4FB0
:100220003491FC01EA57FF4FE491EE23C9F02223F9
:1002300039F0233001F1A8F4213019F1223029F1ED
:10024000F0E0EE0FFF1FE458FF4FA591B4918FB778
:10025000F894EC91611126C030953E233C938FBFFA
:1002600008952730A9F02830C9F0243049F780914B
:1002700080008F7D03C0809180008F778093800005
:10028000DFCF84B58F7784BDDBCF84B58F7DFBCF87
:100290008091B0008F778093B000D2CF8091B00072
:1002A0008F7DF9CF3E2BDACFCF93DF9390E0FC0127
:1002B000E656FF4F24918A579F4FFC018491882373
:1002C000D1F090E0880F991FFC01EE58FF4FA591E7
:1002D000B491FC01E458FF4FC591D49161110EC057
:1002E0009FB7F8948C91E22FE0958E238C93288110
:1002F000E223E8839FBFDF91CF9108958FB7F894F1
:10030000EC91E22BEC938FBFF6CF1F93CF93DF934B
:10031000182FEB0161E00E945401209739F460E04E
:10032000812FDF91CF911F910C940801CF3FD10510
:1003300011F461E0F5CFE12FF0E0E255FF4FE491D9
:10034000E33031F140F4E130B1F0E230E1F0C038B7
:10035000D1057CF7E4CFE73029F1E83059F1E430FA
:10036000B1F780918000806280938000D0938B00F1
:10037000C0938A0004C084B5806884BDC7BDDF9186
:10038000CF911F91089584B5806284BDC8BDF7CF19
:1003900080918000806880938000D0938900C09312
:1003A0008800EDCF8091B00080688093B000C0934A
:1003B000B300E5CF8091B00080628093B000C0931D
:1003C000B400DDCF3FB7F8948091DE049091DF0454
:1003D000A091E004B091E10426B5A89B05C02F3F91
:1003E00019F00196A11DB11D3FBFBA2FA92F982F5B
:1003F0008827BC01CD01620F711D811D911D42E056
:10040000660F771F881F991F4A95D1F708958F921D
:100410009F92AF92BF92CF92DF92EF92FF926B01C9
:100420007C010E94E2014B015C01C114D104E10492
:10043000F104B9F00E94E201681979098A099B095F
:10044000683E73408105910580F321E0C21AD1080E
:10045000E108F10888EE880E83E0981EA11CB11C0B
:10046000E4CFFF90EF90DF90CF90BF90AF909F9040
:100470008F9008952FB7F8946091DA047091DB049F
:100480008091DC049091DD042FBF0895AF92BF925C
:10049000CF92DF92EF92FF920F931F93CF93DF9350
:1004A0006C017B018B01040F151FEB015E01AE187F
:1004B000BF08C017D10759F06991D601ED91FC91A1
:1004C0000190F081E02DC6010995892B79F7C501CE
:1004D000DF91CF911F910F91FF90EF90DF90CF9020
:1004E000BF90AF900895FC01538D448D252F30E0CF
:1004F000842F90E0821B930B541710F0CF96089531
:1005000001970895FC01918D828D981761F0A28D5D
:10051000AE0FBF2FB11D5D968C91928D9F5F9F7323
:10052000928F90E008958FEF9FEF0895FC01918DD9
:10053000828D981731F0828DE80FF11D858D90E046
:1005400008958FEF9FEF0895FC01918D228D892FE3
:1005500090E0805C9F4F821B91098F7399270895CB
:1005600082EE94E00E94A40221E0892B09F420E0AD
:10057000822F089580E090E0892B29F00E94B0023C
:1005800081110C9400000895FC01A48DA80FB92FCF
:10059000B11DA35ABF4F2C91848D90E001968F73AB
:1005A0009927848FA689B7892C93A089B1898C91CA
:1005B000837080648C93938D848D981306C0028819
:1005C000F389E02D80818F7D80830895EF92FF92E3
:1005D0000F931F93CF93DF93EC0181E0888F9B8D66
:1005E0008C8D98131AC0E889F989808185FF15C020
:1005F0009FB7F894EE89FF896083E889F989808143
:100600008370806480839FBF81E090E0DF91CF9111
:100610001F910F91FF90EF900895F62E0B8D10E033
:100620000F5F1F4F0F731127E02E8C8D8E110CC0A2
:100630000FB607FCFACFE889F989808185FFF5CFED
:10064000CE010E94C402F1CFEB8DEC0FFD2FF11D06
:10065000E35AFF4FF0829FB7F8940B8FEA89FB892A
:1006600080818062CFCFCF93DF93EC01888D882388
:10067000B9F0AA89BB89E889F9898C9185FD03C005
:10068000808186FD0DC00FB607FCF7CF8C9185FFEA
:10069000F2CF808185FFEDCFCE010E94C402E9CF69
:1006A000DF91CF910895CF93DF93EC0161E08DE06E
:1006B0000E940801BE01DD0F880B990B0E94070202
:1006C00060E08DE0DF91CF910C94080160E087E05D
:1006D0000E94080160E086E00E94080160E085E079
:1006E0000E94080160E084E00E94080170E060E080
:1006F00089E00E94850170E060E08AE00C94850149
:10070000FC0101900020E9F73197AF01481B590B1C
:10071000BC0182EE94E00C9446028F929F92AF92BD
:10072000BF920F931F93CF93DF93CDB7DEB7A197FF
:100730000FB6F894DEBF0FBECDBF19A2423008F449
:100740004AE08E010F5D1F4F842E912CB12CA12CFD
:10075000A50194010E94310AE62FB901CA01EA30CD
:10076000F4F4E05DD801EE938D01232B242B252B8F
:1007700079F790E080E0109719F0CD010E94800396
:10078000A1960FB6F894DEBF0FBECDBFDF91CF911B
:100790001F910F91BF90AF909F908F900895E95C4B
:1007A000E1CFCF93DF930E948003EC0182E191E0DF
:1007B0000E9480038C0F9D1FDF91CF9108950C94B0
:1007C0008003CF92DF92EF92FF92CF93DF936C0181
:1007D000990FEE08FF08F7FE19C06DE282EE94E073
:1007E0000E94E602EC0166277727CB016C197D0990
:1007F0008E099F094AE00E948D038C0F9D1FDF9197
:10080000CF91FF90EF90DF90CF9008954AE0C7011D
:10081000B601DF91CF91FF90EF90DF90CF900C94D5
:100820008D034F925F926F927F928F929F92AF92C1
:10083000BF92CF92DF92EF92FF920F931F93CF93CD
:10084000DF93C3E0D0E0412C512C320193E0E92E3C
:10085000F12C23E2C22ED12C35EA832E30E0932EE8
:1008600041E9A42E40E0B42E60E088E00E94080137
:10087000C7010197F1F761E088E00E940801C60115
:100880000197F1F760E088E00E940801F4016491AB
:10089000F5018491E82FF0E0EE0FFF1FE859FF4FBC
:1008A0008591949100E21EE420E030E0462F0E9402
:1008B000FC05611571058105910529F06F5F7F4F7A
:1008C0008F4F9F4F9F700E949A0A26E933E44BE0B6
:1008D0005DE30E94FE0A20E030E040E05FE30E941A
:1008E000FE0A0E94620A072E000C880B990B460E26
:1008F000571E681E791E65E070E080E090E00E945F
:100900000702219709F0B0CFC301B20123E030E024
:1009100040E050E00E94FF09C901DF91CF911F9193
:100920000F91FF90EF90DF90CF90BF90AF909F908E
:100930008F907F906F905F904F9008951F920F92CD
:100940000FB60F9211242F933F938F939F93AF93E2
:10095000BF938091DA049091DB04A091DC04B09104
:10096000DD043091D90423E0230F2D3758F501968B
:10097000A11DB11D2093D9048093DA049093DB0468
:10098000A093DC04B093DD048091DE049091DF0439
:10099000A091E004B091E1040196A11DB11D8093E6
:1009A000DE049093DF04A093E004B093E104BF91D0
:1009B000AF919F918F913F912F910F900FBE0F900C
:1009C0001F90189526E8230F0296A11DB11DD2CFC6
:1009D0001F920F920FB60F9211242F933F934F93B4
:1009E0005F936F937F938F939F93AF93BF93EF9397
:1009F000FF9382EE94E00E94C402FF91EF91BF91B9
:100A0000AF919F918F917F916F915F914F913F91A6
:100A10002F910F900FBE0F901F9018951F920F925D
:100A20000FB60F9211242F938F939F93EF93FF9301
:100A3000E091F204F091F3048081E091F804F091E8
:100A4000F90482FD1BC090818091FB048F5F8F733E
:100A50002091FC04821741F0E091FB04F0E0EE519C
:100A6000FB4F958F8093FB04FF91EF919F918F91A6
:100A70002F910F900FBE0F901F9018958081F4CF8B
:100A80001F920F920FB60F9211242F933F934F9303
:100A90005F936F937F938F939F93AF93BF93CF9306
:100AA000DF93EF93FF938091C604C091A305D0E03C
:100AB00087FF24C010928500109284008091C604A4
:100AC0008F5F8093C6048091C604082E000C990B9A
:100AD0008C179D0724F48091C6048C30C4F180915A
:100AE000840090918500049680349C4908F47AC073
:100AF0008091840090918500049676C08091C60410
:100B0000082E000C990B8C179D07C4F6E091C604C3
:100B10008E2FEE0F990BFC01EE0FFF1FE80FF91F50
:100B2000E158FA4F808186FFC9CFE091C6048E2F2D
:100B3000EE0F990BFC01EE0FFF1FE80FF91FE158B4
:100B4000FA4F808160E08F730E940801B7CF209137
:100B5000840030918500E091C6048E2FEE0F990B32
:100B6000FC01EE0FFF1FE80FF91FE158FA4F8181DA
:100B70009281820F931F9093890080938800E09167
:100B8000C6048E2FEE0F990BFC01EE0FFF1FE80F2E
:100B9000F91FE158FA4F808186FF11C0E091C60429
:100BA0008E2FEE0F990BFC01EE0FFF1FE80FF91FC0
:100BB000E158FA4F808161E08F730E940801FF9134
:100BC000EF91DF91CF91BF91AF919F918F917F91E5
:100BD0006F915F914F913F912F910F900FBE0F90AA
:100BE0001F90189580E49CE9909389008093880079
:100BF0008FEF8093C604E3CFCF92DF92EF92FF9204
:100C00000F931F93E82FF92F05C0015011092109F7
:100C1000310961F1908196239417B9F305C0015011
:100C200011092109310911F1908196239413F7CF0D
:100C3000C12CD12CE12CF12C0AC08FEFC81AD80A94
:100C4000E80AF80A0C151D052E053F0579F080818C
:100C50008623841791F36C2D7D2D8E2D9F2D1F9152
:100C60000F91FF90EF90DF90CF90089560E070E0DB
:100C700080E090E01F910F91FF90EF90DF90CF9078
:100C800008951092E5041092E40488EE93E0A0E049
:100C9000B0E08093E6049093E704A093E804B09357
:100CA000E90484E091E09093E3048093E20485EC0E
:100CB00090E09093EF048093EE0484EC90E09093A6
:100CC000F1048093F00480EC90E09093F30480931F
:100CD000F20481EC90E09093F5048093F40482ECAC
:100CE00090E09093F7048093F60486EC90E0909364
:100CF000F9048093F8041092FB041092FC04109203
:100D0000FD041092FE048091A3058C3098F491E0CC
:100D1000980F9093A3058093A40590E0FC01EE0F3B
:100D2000FF1FE80FF91FE158FA4F88EB9BE0928311
:100D3000818308958FEF8093A4050895789484B5F6
:100D4000826084BD84B5816084BD85B5826085BDC7
:100D500085B5816085BD80916E00816080936E0055
:100D60001092810080918100826080938100809147
:100D700081008160809381008091800081608093F8
:100D800080008091B10084608093B1008091B000B8
:100D900081608093B00080917A00846080937A00B3
:100DA00080917A00826080937A0080917A008160DD
:100DB00080937A0080917A00806880937A00109204
:100DC000C10061E088E00E94540160E08BE00E9475
:100DD000540161E087E00E94540161E086E00E94D6
:100DE000540161E085E00E94540161E084E00E94CA
:100DF000540161E089E00E94540161E08AE00E94B0
:100E0000540161E08CE00E94540161E08DE00E9499
:100E1000540160E083E10E945401E091F204F091FA
:100E2000F30482E08083E091EE04F091EF041082FD
:100E3000E091F004F091F1048FEC80831092FA04B9
:100E4000E091F604F091F70486E08083E091F404E9
:100E5000F091F504808180618083E091F404F09149
:100E6000F504808188608083E091F404F091F504BA
:100E7000808180688083E091F404F091F5048081A2
:100E80008F7D80838091A4058C3008F051C061E093
:100E900083E00E9454018091A405282F30E0F901DD
:100EA000EE0FFF1FE20FF31FE158FA4F9081907C85
:100EB000936090831092A5051092A6052CE0622FF6
:100EC0000E94930B829FB001112430E020E0AB011F
:100ED000420F531FFA01EE0FFF1FE40FF51FE158F9
:100EE000FA4F908196FD16C02F5F3F4F2C30310591
:100EF00071F781110FC01092800082E08093810011
:100F00001092850010928400B19A80916F008260E7
:100F100080936F00E091A4058E2F90E0FC01EE0F0E
:100F2000FF1FE80FF91FE158FA4F8081806480832A
:100F30008AE590E00E948C000E943A026093CA0405
:100F40007093CB048093CC049093CD040E943A021A
:100F500085E191E00E94D10381E491E00E94D103F8
:100F60008FE491E00E94D1038AE691E00E94D103D0
:100F700084E690E00E94530382EA882E82E0982E55
:100F8000A12CB12C98EEC92E93E0D92EE12CF12C96
:100F900020E0222E20E0322E0E9411049093D804EB
:100FA0008093D7048091D6048F5F8093D6048233D8
:100FB00008F483C025E420937C0080917A0080644B
:100FC00080937A0080917A0086FDFCCF8091780032
:100FD000909179009093C9048093C8042091C7042C
:100FE0008E3531E093070CF0BCC1211123C081E0A4
:100FF0008093C70484E891E00E94D10388EC90E0DC
:101000000E94530364E670E080E090E00E940702D3
:1010100088EC90E00E94530364E670E080E090E08A
:101020000E94070288EC90E00E94530361E08CE08C
:101030000E9408010E943A02C091C804D091C904DC
:101040000E943A0228EB3BE040E050E00E94310A67
:10105000623371058105910570F585EC91E00E9480
:10106000DF038091C8049091C9040E94E10388EDD8
:1010700091E00E94DF039E01DD0F440B550B2E55BE
:10108000314041095109A4E6B0E00E941E0AA501C1
:1010900094010E94FF092536310514F024E630E062
:1010A000C90137FF02C090E080E00E94E10387EEB3
:1010B00091E00E94D1031092D60489EE91E00E9443
:1010C000DF038091D7049091D8040E94E10382E16C
:1010D00091E00E9480038091D7049091D8040197F9
:1010E0004D9708F05EC10E9466036CE271E080E0FB
:1010F00090E00E94070260E087E00E94080161E042
:1011000086E00E94080160E085E00E94080161E03D
:1011100084E00E94080164EB70E089E00E94850190
:1011200064EB70E08AE00E94850168E572E080E08F
:1011300090E00E9407020E9466036CE271E080E08A
:1011400090E00E94070284EB90E00E948C006CE229
:1011500071E080E090E00E9407020E941104EC011F
:1011600064E670E080E090E00E94070290E080E09A
:101170000E948C006CE271E080E090E00E94070227
:101180000E9411048C0164E670E080E090E00E940F
:1011900007028AE590E00E948C000C171D070CF0F6
:1011A000F2C060E087E00E94080161E086E00E94F2
:1011B000080161E085E00E94080160E084E00E948F
:1011C000080164EB70E089E00E94850164EB70E047
:1011D0008AE00E9485018091D4049091D504019603
:1011E0009093D5048093D4046CEB72E080E090E09F
:1011F0000E9407028091D2049091D30401969093AB
:10120000D3048093D2040E943A0220E137E240E006
:1012100050E00E94310A623371058105910508F0A2
:1012200094C00E943A020091CA041091CB0420910C
:10123000CC043091CD04601B710B820B930BA70182
:1012400096010E94310A29013A0184EF91E00E943F
:10125000D10384E792E00E94D10383EA92E00E94E6
:10126000D10382E293E00E94DF034AE0C301B201AE
:101270000E948D0389E393E00E94D1038EE493E002
:101280000E94DF036091CE047091CF048091D0045E
:101290009091D104A70196010E94310ACA01B901B7
:1012A0004AE00E948D0388E693E00E94D1038AE71A
:1012B00093E00E94DF034AE060E070E0CB010E940F
:1012C0008D0385E993E00E94D10386EA93E00E94B2
:1012D000DF0390E080E00E94E1038FEE93E00E9444
:1012E000D1038DEB93E00E94DF038091D2049091B3
:1012F000D3040E94E10380EF93E00E94D10385EDC7
:1013000093E00E94DF038091C8049091C9040E9479
:10131000E10389EE93E00E94D10384E094E00E940F
:10132000DF0388E194E00E94D10381E394E00E940E
:10133000DF0390E080E00E94E1038DEE93E00E94E5
:10134000D10386E494E00E94D1032114310409F40E
:1013500023CE0E94B002882309F41ECE0E94000012
:101360001BCE222309F468CE813991400CF464CE5F
:101370001092C70460E08CE00E94080188EA91E0C6
:101380000E94D10359CE61E087E00E94080160E02D
:1013900086E00E94080160E085E00E94080161E0AB
:1013A0000DCF61E087E00E94080160E086E00E94C6
:1013B000080161E085E00E94080160E084E00E948D
:1013C000080164EB70E089E00E94850164EB70E045
:1013D0008AE00E9485018091CE049091CF04A09173
:1013E000D004B091D104C296A11DB11D8093CE044A
:1013F0009093CF04A093D004B093D10404CF052ED2
:1014000097FB1EF400940E94160A57FD07D00E9415
:10141000310A07FC03D04EF40C94160A50954095FF
:10142000309521953F4F4F4F5F4F08959095809590
:10143000709561957F4F8F4F9F4F08950E94530A7B
:10144000A59F900DB49F900DA49F800D911D112418
:101450000895B7FF0C941E0A0E941E0A821B930B6C
:101460000895A1E21A2EAA1BBB1BFD010DC0AA1FE5
:10147000BB1FEE1FFF1FA217B307E407F50720F0FD
:10148000A21BB30BE40BF50B661F771F881F991F78
:101490001A9469F760957095809590959B01AC01C1
:1014A000BD01CF010895A29FB001B39FC001A39FCA
:1014B000700D811D1124911DB29F700D811D11248D
:1014C000911D08950E94690A6894B1110C94F80A5C
:1014D00008950E94DD0A88F09F5798F0B92F992748
:1014E000B751B0F0E1F0660F771F881F991F1AF00F
:1014F000BA95C9F714C0B13091F00E94F70AB1E073
:1015000008950C94F70A672F782F8827B85F39F071
:10151000B93FCCF3869577956795B395D9F73EF4A7
:1015200090958095709561957F4F8F4F9F4F08954F
:10153000E89409C097FB3EF490958095709561956D
:101540007F4F8F4F9F4F9923A9F0F92F96E9BB2723
:101550009395F695879577956795B795F111F8CF9F
:10156000FAF4BB0F11F460FF1BC06F5F7F4F8F4F0A
:101570009F4F16C0882311F096E911C0772321F000
:101580009EE8872F762F05C0662371F096E8862F98
:1015900070E060E02AF09A95660F771F881FDAF7EF
:1015A000880F9695879597F9089557FD9058440FA1
:1015B000551F59F05F3F71F04795880F97FB991FB2
:1015C00061F09F3F79F0879508951216130614066F
:1015D000551FF2CF4695F1DF08C0161617061806FC
:1015E000991FF1CF86957105610508940895E894D7
:1015F000BB2766277727CB0197F908950E94110B27
:101600000C94820B0E94740B38F00E947B0B20F02C
:10161000952311F00C946B0B0C94710B11240C940A
:10162000F80A0E94D50A70F3959FC1F3950F50E018
:10163000551F629FF001729FBB27F00DB11D639F84
:10164000AA27F00DB11DAA1F649F6627B00DA11D2A
:10165000661F829F2227B00DA11D621F739FB00DD0
:10166000A11D621F839FA00D611D221F749F332740
:10167000A00D611D231F849F600D211D822F762FD9
:101680006A2F11249F5750409AF0F1F088234AF0B6
:10169000EE0FFF1FBB1F661F771F881F9150504022
:1016A000A9F79E3F510580F00C946B0B0C94F80A3F
:1016B0005F3FE4F3983ED4F3869577956795B795A9
:1016C000F795E7959F5FC1F7FE2B880F911D9695C3
:1016D000879597F9089597F99F6780E870E060E033
:1016E00008959FEF80EC089500240A9416161706BB
:1016F00018060906089500240A9412161306140603
:1017000005060895092E0394000C11F4882352F065
:10171000BB0F40F4BF2B11F460FF04C06F5F7F4F1D
:101720008F4F9F4F0895991B79E004C0991F96171A
:1017300008F0961B881F7A95C9F780950895EE0FDB
:0E174000FF1F0590F491E02D0994F894FFCF5F
:10174E0000000000E602460273023303A402820286
:10175E0096020D0A003D3D3D204F42535441434CED
:10176E00452041564F4944494E4720524F424F540F
:10177E0020494E495449414C495A4544203D3D3D2E
:10178E000053797374656D2072656164792100422E
:10179E00617474657279206D6F6E69746F72696EA3
:1017AE00673A20414354495645004D6F76656D6545
:1017BE006E7420747261636B696E673A2041435494
:1017CE0049564500E29AA0EFB88F20204C4F572083
:1017DE0042415454455259205741524E494E472189
:1017EE0020E29AA0EFB88F00E29C932042617474BD
:1017FE00657279206C6576656C207265636F7665AF
:10180E007265642100F09F948B204261747465723E
:10181E0079204144433A2000207C20457374696D41
:10182E00617465643A2000250044697374616E63C7
:10183E00653A20000AE29594E29590E29590E29541
:10184E0090E29590E29590E29590E29590E29590D7
:10185E00E29590E29590E29590E29590E29590E275
:10186E009590E29590E29590E29590E29590E295B2
:10187E0090E29590E29590E29590E29590E29590A7
:10188E00E29590E29590E29590E29590E29590E245
:10189E009590E29590E29590E29590E29590E29582
:1018AE0090E29590E29590E29590E29590E2959077
:1018BE00E2959700E29591202020202020524F4261
:1018CE004F542053455353494F4E2053544154497E
:1018DE00535449435320202020202020202020E252
:1018EE00959100E295A0E29590E29590E29590E2B6
:1018FE009590E29590E29590E29590E29590E29522
:10190E0090E29590E29590E29590E29590E2959016
:10191E00E29590E29590E29590E29590E29590E2B4
:10192E009590E29590E29590E29590E29590E295F1
:10193E0090E29590E29590E29590E29590E29590E6
:10194E00E29590E29590E29590E29590E29590E284
:10195E009590E29590E29590E29590E29590E295C1
:10196E00A300E295912053657373696F6E204475E1
:10197E00726174696F6E3A2000732020202020203F
:10198E0020202020202020202020E2959100E2958A
:10199E009120546F74616C204D6F76656D656E7419
:1019AE002054696D653A20007320202020202020CD
:1019BE00202020202020E2959100E2959120546F66
:1019CE0074616C2041766F6964616E636520546941
:1019DE006D653A200073202020202020202020201A
:1019EE002020E2959100E295912053756363657313
:1019FE007366756C204D6F7665733A2000E2959193
:101A0E00204661696C65642041766F6964616E631E
:101A1E0065733A2000E29591204261747465727983
:101A2E00204C6576656C3A200020414443202020EE
:101A3E002020202020202020202020202020202098
:101A4E00E2959100E295912043757272656E742055
:101A5E0053746174653A20004D4F56494E472046E7
:101A6E004F525741524420202020202020E29591B1
:101A7E0000E2959120537475636B20417474656D0B
:101A8E007074733A2000E2959AE29590E29590E296
:101A9E009590E29590E29590E29590E29590E29580
:101AAE0090E29590E29590E29590E29590E2959075
:101ABE00E29590E29590E29590E29590E29590E213
:101ACE009590E29590E29590E29590E29590E29550
:101ADE0090E29590E29590E29590E29590E2959045
:101AEE00E29590E29590E29590E29590E29590E2E3
:101AFE009590E29590E29590E29590E29590E29520
:061B0E0090E2959D0A0023
:00000001FF
